:100000000C9462000C948A000C948A000C948A0070
:100010000C948A000C948A000C948A000C948A0038
:100020000C948A000C948A000C948A000C948D0421
:100030000C948A000C948A000C948A000C948A0018
:100040000C9443040C948A000C9411040C94EB035C
:100050000C948A000C948A000C948A000C948A00F8
:100060000C948A000C948A000000000024002700F1
:100070002A0000000000250028002B0000000000DE
:1000800023002600290004040404040404040202DA
:100090000202020203030303030301020408102007
:1000A0004080010204081020010204081020000012
:1000B0000008000201000003040700000000000027
:1000C00000004E0511241FBECFEFD8E0DEBFCDBF2C
:1000D00011E0A0E0B1E0E8E4F1E102C005900D928A
:1000E000AC35B107D9F722E0ACE5B1E001C01D9213
:1000F000A333B207E1F710E0C2E6D0E004C02197D5
:10010000FE010E949708C136D107C9F70E948605F3
:100110000C94A2080C940000CF92DF92EF92FF9211
:100120000F931F93CF93DF936C017A018B01C0E093
:10013000D0E0CE15DF0589F0D8016D918D01D60193
:10014000ED91FC910190F081E02DC6010995892B7C
:1001500011F47E0102C02196ECCFC701DF91CF914F
:100160001F910F91FF90EF90DF90CF900895089529
:1001700080E090E00895FC01538D448D252F30E000
:10018000842F90E0821B930B541710F0CF960895A4
:1001900001970895FC01918D828D981761F0828DF1
:1001A000DF01A80FB11D5D968C91928D9F5F9F73AB
:1001B000928F90E008958FEF9FEF0895FC01918D4D
:1001C000828D981731F0828DE80FF11D858D90E0BA
:1001D00008958FEF9FEF0895FC01918D228D892F57
:1001E00090E0805C9F4F821B91098F73992708953F
:1001F0008DE891E00E94EC0021E0892B09F420E0D9
:10020000822F0895FC01848DDF01A80FB11DA35A30
:10021000BF4F2C91848D90E001968F739927848F26
:10022000A689B7892C93A089B1898C9180648C931D
:10023000938D848D981306C00288F389E02D808108
:100240008F7D80830895EF92FF920F931F93CF933A
:10025000DF93EC0181E0888F9B8D8C8D981305C016
:10026000E889F989808185FD24C0F62E0B8D10E088
:100270000F5F1F4F0F731127E02E8C8DE8120CC0FB
:100280000FB607FCFACFE889F989808185FFF5CFA1
:10029000CE010E940201F1CF8B8DFE01E80FF11D0E
:1002A000E35AFF4FF0820B8FEA89FB8980818062DD
:1002B00007C0EE89FF896083E889F98980818064BD
:1002C000808381E090E0DF91CF911F910F91FF90AB
:1002D000EF900895CF93DF93EC01888D8823C9F0C8
:1002E000EA89FB89808185FD05C0A889B9898C913F
:1002F00086FD0FC00FB607FCF5CF808185FFF2CFDA
:10030000A889B9898C9185FFEDCFCE010E940201A9
:10031000E7CFDF91CF91089580E090E0892B29F01D
:100320000E94F80081110C9400000895833081F040
:1003300028F4813099F08230A1F008958730A9F037
:100340008830B9F08430D1F4809180008F7D03C073
:10035000809180008F7780938000089584B58F7797
:1003600002C084B58F7D84BD08958091B0008F77E1
:1003700003C08091B0008F7D8093B0000895CF932B
:10038000DF93282F30E0F901E255FF4F8491F90106
:10039000E656FF4FD491F901EA57FF4FC491CC23A1
:1003A00091F081110E949601EC2FF0E0EE0FFF1FFB
:1003B000E458FF4FA591B491EC91ED2381E090E0DA
:1003C00021F480E002C080E090E0DF91CF910895B9
:1003D0001F93CF93DF93282F30E0F901E255FF4FB1
:1003E0008491F901E656FF4FD491F901EA57FF4F86
:1003F000C491CC23C9F0162F81110E949601EC2FD5
:10040000F0E0EE0FFF1FEE58FF4FA591B4918FB7AC
:10041000F894111105C09C91ED2FE095E92302C0DD
:10042000EC91ED2BEC938FBFDF91CF911F9108954D
:10043000CF93DF9390E0FC01E656FF4F2491FC013F
:10044000EA57FF4F8491882361F190E0880F991F4C
:10045000FC01E859FF4FC591D491FC01EE58FF4FC4
:10046000A591B491611109C09FB7F8948881209536
:1004700082238883EC912E230BC0623061F49FB7F6
:10048000F8943881822F809583238883EC912E2BDA
:100490002C939FBF06C08FB7F894E8812E2B28833A
:1004A0008FBFDF91CF9108952FB7F89460918701A6
:1004B000709188018091890190918A012FBF0895E0
:1004C000CF92DF92EF92FF92CF93DF93EC016032F5
:1004D00082E078070CF03DC077FD06C0653B7105F2
:1004E0002CF064EB70E002C060E070E0898128E8E5
:1004F00030E06901C81AD10887FDD394CC0CDD1C0B
:10050000CC0CDD1C0D2C000CEE08FF088A8128E5C0
:1005100032E0281B310987FD3395220F331F220F4C
:10052000331FC901330FAA0BBB0B9C01AD012C1962
:100530003D094E095F09DB010E94520824EB30E0BF
:1005400040E050E00E942808C20ED31EE41EF51EB3
:10055000B60188818C3080F5998148E850E0491BCC
:10056000510997FD5395440F551F440F551F6417AC
:10057000750784F09A8128E532E0291B310997FD3F
:100580003395220F331F220F331FAB012617370776
:100590000CF4A90142505109440F551F2FB7F8948C
:1005A00090E0FC01EE0FFF1F8E0F9F1FFC01E25A2F
:1005B000FE4F528341832FBFDF91CF91FF90EF9089
:1005C000DF90CF9008951F93CF93DF93EC01162F08
:1005D00088818C3008F04EC061E0812F0E941802A3
:1005E0008881E82FF0E09F01220F331FE20FF31FF5
:1005F000E25AFE4F1F739081907C192B1083198251
:100600001A826CE00E948B089CE0899FB001112443
:1006100040E050E09A01260F371FF901EE0FFF1F4F
:100620002E0F3F1FF901E25AFE4F908196FD16C032
:100630004F5F5F4F4C30510569F781110FC0109229
:10064000800082E0809381001092850010928400E7
:10065000B19A80916F00826080936F00E881F0E032
:10066000CF01880F991FE80FF91FE25AFE4F8081D2
:10067000806480838881DF91CF911F910895FC0170
:1006800090915D019C30A0F481E0890F80935D0121
:100690009083892F90E0FC01EE0FFF1F8E0F9F1FAC
:1006A000FC01E25AFE4F88EB9BE092838183089520
:1006B0008FEF8083089583E10E94BF01892B71F041
:1006C00080910001882389F180918C01E82FF0E06E
:1006D000EF5FFE4F10821092000124C082E10E9461
:1006E000BF01892B61F0809100018130F1F0809190
:1006F0008C01E82FF0E0EF5FFE4F91E010C081E148
:100700000E94BF01892B89F080910001823069F03D
:1007100080918C01E82FF0E0EF5FFE4F92E0908334
:10072000909300018F5F80938C010895009769F08A
:10073000FC0101900020E9F73197AF01481B590BEC
:10074000BC018DE891E00C948C0080E090E008956D
:100750008F929F92AF92BF920F931F93CF93DF938D
:10076000CDB7DEB7A1970FB6F894DEBF0FBECDBFF1
:1007700019A2423008F44AE08E010F5D1F4F842E0B
:10078000912CA12CB12CA50194010E945A08E62FAE
:10079000B901CA0101501109EA3014F4E05D01C049
:1007A000E95CD801EC93232B242B252B61F7C8019E
:1007B0000E949603A1960FB6F894DEBF0FBECDBF80
:1007C000DF91CF911F910F91BF90AF909F908F902D
:1007D00008950E949D081F920F920FB60F92112448
:1007E0002F933F934F935F936F937F938F939F9339
:1007F000AF93BF93EF93FF938DE891E00E940201C6
:10080000FF91EF91BF91AF919F918F917F916F91E8
:100810005F914F913F912F910F900FBE0F901F90BE
:1008200018951F920F920FB60F9211242F938F934A
:100830009F93EF93FF93E0919D01F0919E01808142
:10084000E091A301F091A40182FD12C090818091FA
:10085000A6018F5F8F732091A701821751F0E0915D
:10086000A601F0E0E357FE4F958F8093A60101C0EB
:100870008081FF91EF919F918F912F910F900FBEEB
:100880000F901F9018951F920F920FB60F92112480
:100890002F933F938F939F93AF93BF938091870143
:1008A00090918801A0918901B0918A0130918601CF
:1008B00023E0230F2D3720F40196A11DB11D05C0A3
:1008C00026E8230F0296A11DB11D20938601809377
:1008D000870190938801A0938901B0938A01809148
:1008E000820190918301A0918401B09185010196CC
:1008F000A11DB11D8093820190938301A093840177
:10090000B0938501BF91AF919F918F913F912F91AE
:100910000F900FBE0F901F9018951F920F920FB659
:100920000F9211242F933F934F935F936F937F9375
:100930008F939F93AF93BF93EF93FF9380915C014D
:1009400087FF05C010928500109284001BC0209183
:100950005C01022E000C330B80915D0190E02817A2
:10096000390784F480915C01082E000C990BFC017E
:10097000EE0FFF1F8E0F9F1FFC01E25AFE4F80817A
:1009800086FD15C080915C018F5F80935C01209192
:100990005C01022E000C330B80915D0190E0281762
:1009A0003907C4F480915C018C3064F113C08091EC
:1009B0005C01082E000C990BFC01EE0FFF1F8E0F3F
:1009C0009F1FFC01E25AFE4F808160E08F730E94FE
:1009D000E801D8CF809184009091850004968034FE
:1009E0009C4918F480E49CE905C0809184009091B2
:1009F0008500049690938900809388008FEF809300
:100A00005C013BC0209184003091850080915C01A5
:100A1000082E000C990BFC01EE0FFF1F8E0F9F1F7D
:100A2000FC01E25AFE4F81819281820F931F9093C5
:100A300089008093880080915C01082E000C990B3E
:100A4000FC01EE0FFF1F8E0F9F1FFC01E25AFE4FAD
:100A5000808186FF12C080915C01082E000C990BEA
:100A6000FC01EE0FFF1F8E0F9F1FFC01E25AFE4F8D
:100A7000808161E08F730E94E801FF91EF91BF9147
:100A8000AF919F918F917F916F915F914F913F9126
:100A90002F910F900FBE0F901F901895EDE8F1E089
:100AA0001382128288EE93E0A0E0B0E08483958305
:100AB000A683B7838AE191E09183808385EC90E0FF
:100AC0009587848784EC90E09787868780EC90E018
:100AD000918B808B81EC90E0938B828B82EC90E009
:100AE000958B848B86EC90E0978B868B118E128E83
:100AF000138E148E80E392E00E943F038DE292E019
:100B00000E943F038AE292E00C943F03789484B5FC
:100B1000826084BD84B5816084BD85B5826085BDF9
:100B200085B5816085BD80916E00816080936E0087
:100B30001092810080918100826080938100809179
:100B4000810081608093810080918000816080932A
:100B500080008091B10084608093B1008091B000EA
:100B600081608093B00080917A00846080937A00E5
:100B700080917A00826080937A0080917A0081600F
:100B800080937A0080917A00806880937A00109236
:100B9000C10061E08DE00E94180261E08CE00E94DB
:100BA000180261E08BE00E94180261E08AE00E9476
:100BB000180261E087E00E94180261E086E00E946E
:100BC000180261E085E00E94180260E080E10E9466
:100BD000180260E08FE00E94180260E08EE00E9440
:100BE000180260E083E10E94180260E082E10E9446
:100BF000180260E081E10E94180263E070E080E387
:100C000092E00E94E30264E070E08DE292E00E94D4
:100C1000E30265E070E08AE292E00E94E30260E0B5
:100C200070E080E392E00E94600260E070E08DE29C
:100C300092E00E94600260E070E08AE292E00E942E
:100C4000600281E080938B01E0919D01F0919E0113
:100C500082E08083E0919D01F0919E011082E091FD
:100C60009901F0919A011082E0919B01F0919C0111
:100C700080E180831092A501E091A101F091A20191
:100C800086E08083E0919F01F091A00180818061E6
:100C90008083E0919F01F091A00180818860808332
:100CA000E0919F01F091A001808180688083E091B4
:100CB0009F01F091A00180818F7D8083D2E00E940E
:100CC0005B0380E10E94BF01892B09F05DC08FE0CA
:100CD0000E94BF01892B09F057C08EE00E94BF011E
:100CE000892B09F051C080911501843009F04CC066
:100CF00061E087E00E94E80160E086E00E94E80190
:100D000080E491E00E94960388E291E00E949603BD
:100D10008DE391E00E94960380E10E94BF01892B40
:100D200019F01092150110C08FE00E94BF01892BAD
:100D300021F081E08093150107C08EE00E94BF0181
:100D4000892B11F0D093150180911501811103C0F9
:100D500085B1837C15C0813031F485B1837C85B940
:100D600085B1836E0DC0823031F485B1837C85B945
:100D700085B1836D05C085B1837C85B985B18F6DE3
:100D800085B90E948C019BCF80E10E94BF01892B15
:100D900019F01092150110C08FE00E94BF01892B3D
:100DA00021F081E08093150107C08EE00E94BF0111
:100DB000892B11F0D09315016091150170E080E04E
:100DC00090E04AE00E94A80388E291E00E94960326
:100DD00001E011E07801D7016D917D0170E080E0C4
:100DE00090E04AE00E94A803B4E1EB16B1E0FB06F4
:100DF00091F7C0910101C43009F486CF80911501AB
:100E0000C81303C160E087E00E94E80160E086E06B
:100E10000E94E80181E080938B01C1114AC06AE51C
:100E200070E080E392E00E9460020E9454026B0135
:100E30007C010E945402DC01CB018C199D09AE0992
:100E4000BF09843F9140A105B10570F580E00E9483
:100E5000BF01892B21F00E9454026B017C010E948A
:100E60005B03E7CF60E070E080E392E00E94600205
:100E700010928B010E945402DC01CB018C199D0958
:100E8000AE09BF0980399140A105B105E8F50E947E
:100E90005B0380E00E94BF01892B21F36AE570E0CB
:100EA00080E392E00E9460020E9454026B017C0188
:100EB000E1CFC13009F053C06AE570E08DE292E005
:100EC0000E9460020E9454026B017C010E94540245
:100ED000DC01CB018C199D09AE09BF09843F91400B
:100EE000A105B105C8F00E9454026B017C010E946B
:100EF0005402DC01CB018C199D09AE09BF09803970
:100F00009140A105B105A0F080918C0181508093A2
:100F10008C01E2E0F1E070C088E00E94BF01892B03
:100F200021F00E9454026B017C010E945B03CECF32
:100F30000E945B0388E00E94BF01892B39F06AE5BB
:100F400070E08DE292E00E946002CDCF60E070E040
:100F50008DE292E00E94600210928B01C8CFC230F5
:100F600099F66AE570E08AE292E00E9460020E94CF
:100F700054026B017C010E945402DC01CB018C19EC
:100F80009D09AE09BF09843F9140A105B10578F5DF
:100F900089E00E94BF01892B21F00E9454026B015D
:100FA0007C010E945B03E7CF60E070E08AE292E0A0
:100FB0000E94600210928B010E945402DC01CB015E
:100FC0008C199D09AE09BF0980399140A105B10571
:100FD00008F09ACF0E945B0389E00E94BF01892B31
:100FE00019F36AE570E08AE292E00E9460020E94D2
:100FF00054026B017C01E0CF8191D8018D938D016A
:10100000B1E004311B07C1F77FCE8C1778F48091D3
:101010008B01811179CE61E087E00E94E80160E0F8
:1010200086E00E94E80181E391E06CCEC81708F0E9
:101030006BCE80918B01811167CE60E087E00E94CA
:10104000E80161E086E00E94E80186E391E05ACE83
:10105000052E97FB1EF400940E943F0857FD07D011
:101060000E945A0807FC03D04EF40C943F08509598
:101070004095309521953F4F4F4F5F4F0895909584
:101080008095709561957F4F8F4F9F4F08950E9477
:101090007C08A59F900DB49F900DA49F800D911D7D
:1010A00011240895B7FF0C9447080E944708821B3B
:1010B000930B0895A1E21A2EAA1BBB1BFD010DC0C4
:1010C000AA1FBB1FEE1FFF1FA217B307E407F507F8
:1010D00020F0A21BB30BE40BF50B661F771F881FD4
:1010E000991F1A9469F760957095809590959B016A
:1010F000AC01BD01CF010895A29FB001B39FC00113
:10110000A39F700D811D1124911DB29F700D811D33
:101110001124911D0895991B79E004C0991F961719
:1011200008F0961B881F7A95C9F780950895EE0FF1
:10113000FF1F0590F491E02D099481E090E0F89470
:081140000C94A208F894FFCF03
:101148000404040404040404040404040404040457
:101158000404040404040000000023018C00BB0004
:101168006A01EC00CA00DE00202020202020202078
:101178000020205550002020444F574E000D0A00F3
:10118800546865726520697320612070726F626CA3
:0C119800656D20676F20444F574E00002B
:00000001FF
